:100098003F065B4F666D7D077F6F777C395E7971B0
:0B00B400EF1FAC0670011E4C70F6221E
:10000300E4F50975900FE590640F60757FE87E0352
:100013001200B4E590640F606875900FAF90EF2401
:10002300F5601024FE601114601324077012E4F5C8
:1000330008800D75080180087508028003750803A0
:100043007590F0AF90EF2450601124E0601124F01C
:10005300601124707013850808800E740480067480
:10006300088002740C2508F508E509C39432501181
:10007300E59064F0600B7FE87E031200B40509800D
:01008300E894
:010084002259
:10008500C2A2C2A3C2A4120003E50890009893F58A
:030095008080F375
:030000000200A853
:0C00A800787FE4F6D8FD75810902008520
:00000001FF
