:100065003F065B4F666D7D077F6F777C395E7971E3
:0B008100EF1FAC0670011E4C70F62251
:10000300E4FDFBC2A2C2A3C2A4ED90006593F580F8
:100013007F987E3A120081ED641070430BBB01049C
:10002300D2A28039BB0202801CBB0304D2A2802D62
:10003300BB0408C2A2C2A3D2A48022BB0504D2A2DD
:10004300801BBB0606C2A2D2A38012BB0704D2A2A6
:10005300800BBB0808E4FBC2A2C2A3C2A47DFF0DB0
:0200630080A774
:0300000002007586
:0C007500787FE4F6D8FD758107020003D7
:00000001FF
